{
	"contracts/Cryptographic/sha256.sol": {
		"HashExample": {
			"abi": [
				{
					"inputs": [
						{
							"internalType": "bytes",
							"name": "data",
							"type": "bytes"
						}
					],
					"name": "getHash",
					"outputs": [
						{
							"internalType": "bytes32",
							"name": "",
							"type": "bytes32"
						}
					],
					"stateMutability": "pure",
					"type": "function"
				}
			],
			"devdoc": {
				"kind": "dev",
				"methods": {},
				"version": 1
			},
			"evm": {
				"assembly": "    /* \"contracts/Cryptographic/sha256.sol\":62:197  contract HashExample {... */\n  mstore(0x40, 0x80)\n  callvalue\n  dup1\n  iszero\n  tag_1\n  jumpi\n  0x00\n  dup1\n  revert\ntag_1:\n  pop\n  dataSize(sub_0)\n  dup1\n  dataOffset(sub_0)\n  0x00\n  codecopy\n  0x00\n  return\nstop\n\nsub_0: assembly {\n        /* \"contracts/Cryptographic/sha256.sol\":62:197  contract HashExample {... */\n      mstore(0x40, 0x80)\n      callvalue\n      dup1\n      iszero\n      tag_1\n      jumpi\n      0x00\n      dup1\n      revert\n    tag_1:\n      pop\n      jumpi(tag_2, lt(calldatasize, 0x04))\n      shr(0xe0, calldataload(0x00))\n      dup1\n      0xb00140aa\n      eq\n      tag_3\n      jumpi\n    tag_2:\n      0x00\n      dup1\n      revert\n        /* \"contracts/Cryptographic/sha256.sol\":90:194  function getHash(bytes memory data) public pure returns (bytes32) {... */\n    tag_3:\n      tag_4\n      0x04\n      dup1\n      calldatasize\n      sub\n      dup2\n      add\n      swap1\n      tag_5\n      swap2\n      swap1\n      tag_6\n      jump\t// in\n    tag_5:\n      tag_7\n      jump\t// in\n    tag_4:\n      mload(0x40)\n      tag_8\n      swap2\n      swap1\n      tag_9\n      jump\t// in\n    tag_8:\n      mload(0x40)\n      dup1\n      swap2\n      sub\n      swap1\n      return\n    tag_7:\n        /* \"contracts/Cryptographic/sha256.sol\":147:154  bytes32 */\n      0x00\n        /* \"contracts/Cryptographic/sha256.sol\":174:186  sha256(data) */\n      0x02\n        /* \"contracts/Cryptographic/sha256.sol\":181:185  data */\n      dup3\n        /* \"contracts/Cryptographic/sha256.sol\":174:186  sha256(data) */\n      mload(0x40)\n      tag_11\n      swap2\n      swap1\n      tag_12\n      jump\t// in\n    tag_11:\n      0x20\n      mload(0x40)\n      dup1\n      dup4\n      sub\n      dup2\n      dup6\n      gas\n      staticcall\n      iszero\n      dup1\n      iszero\n      tag_14\n      jumpi\n      returndatasize\n      0x00\n      dup1\n      returndatacopy\n      revert(0x00, returndatasize)\n    tag_14:\n      pop\n      pop\n      pop\n      mload(0x40)\n      returndatasize\n      not(0x1f)\n      0x1f\n      dup3\n      add\n      and\n      dup3\n      add\n      dup1\n      0x40\n      mstore\n      pop\n      dup2\n      add\n      swap1\n      tag_15\n      swap2\n      swap1\n      tag_16\n      jump\t// in\n    tag_15:\n        /* \"contracts/Cryptographic/sha256.sol\":167:186  return sha256(data) */\n      swap1\n      pop\n        /* \"contracts/Cryptographic/sha256.sol\":90:194  function getHash(bytes memory data) public pure returns (bytes32) {... */\n      swap2\n      swap1\n      pop\n      jump\t// out\n        /* \"#utility.yul\":7:82   */\n    tag_17:\n        /* \"#utility.yul\":40:46   */\n      0x00\n        /* \"#utility.yul\":73:75   */\n      0x40\n        /* \"#utility.yul\":67:76   */\n      mload\n        /* \"#utility.yul\":57:76   */\n      swap1\n      pop\n        /* \"#utility.yul\":7:82   */\n      swap1\n      jump\t// out\n        /* \"#utility.yul\":88:205   */\n    tag_18:\n        /* \"#utility.yul\":197:198   */\n      0x00\n        /* \"#utility.yul\":194:195   */\n      dup1\n        /* \"#utility.yul\":187:199   */\n      revert\n        /* \"#utility.yul\":211:328   */\n    tag_19:\n        /* \"#utility.yul\":320:321   */\n      0x00\n        /* \"#utility.yul\":317:318   */\n      dup1\n        /* \"#utility.yul\":310:322   */\n      revert\n        /* \"#utility.yul\":334:451   */\n    tag_20:\n        /* \"#utility.yul\":443:444   */\n      0x00\n        /* \"#utility.yul\":440:441   */\n      dup1\n        /* \"#utility.yul\":433:445   */\n      revert\n        /* \"#utility.yul\":457:574   */\n    tag_21:\n        /* \"#utility.yul\":566:567   */\n      0x00\n        /* \"#utility.yul\":563:564   */\n      dup1\n        /* \"#utility.yul\":556:568   */\n      revert\n        /* \"#utility.yul\":580:682   */\n    tag_22:\n        /* \"#utility.yul\":621:627   */\n      0x00\n        /* \"#utility.yul\":672:674   */\n      0x1f\n        /* \"#utility.yul\":668:675   */\n      not\n        /* \"#utility.yul\":663:665   */\n      0x1f\n        /* \"#utility.yul\":656:661   */\n      dup4\n        /* \"#utility.yul\":652:666   */\n      add\n        /* \"#utility.yul\":648:676   */\n      and\n        /* \"#utility.yul\":638:676   */\n      swap1\n      pop\n        /* \"#utility.yul\":580:682   */\n      swap2\n      swap1\n      pop\n      jump\t// out\n        /* \"#utility.yul\":688:868   */\n    tag_23:\n        /* \"#utility.yul\":736:813   */\n      0x4e487b7100000000000000000000000000000000000000000000000000000000\n        /* \"#utility.yul\":733:734   */\n      0x00\n        /* \"#utility.yul\":726:814   */\n      mstore\n        /* \"#utility.yul\":833:837   */\n      0x41\n        /* \"#utility.yul\":830:831   */\n      0x04\n        /* \"#utility.yul\":823:838   */\n      mstore\n        /* \"#utility.yul\":857:861   */\n      0x24\n        /* \"#utility.yul\":854:855   */\n      0x00\n        /* \"#utility.yul\":847:862   */\n      revert\n        /* \"#utility.yul\":874:1155   */\n    tag_24:\n        /* \"#utility.yul\":957:984   */\n      tag_47\n        /* \"#utility.yul\":979:983   */\n      dup3\n        /* \"#utility.yul\":957:984   */\n      tag_22\n      jump\t// in\n    tag_47:\n        /* \"#utility.yul\":949:955   */\n      dup2\n        /* \"#utility.yul\":945:985   */\n      add\n        /* \"#utility.yul\":1087:1093   */\n      dup2\n        /* \"#utility.yul\":1075:1085   */\n      dup2\n        /* \"#utility.yul\":1072:1094   */\n      lt\n        /* \"#utility.yul\":1051:1069   */\n      0xffffffffffffffff\n        /* \"#utility.yul\":1039:1049   */\n      dup3\n        /* \"#utility.yul\":1036:1070   */\n      gt\n        /* \"#utility.yul\":1033:1095   */\n      or\n        /* \"#utility.yul\":1030:1118   */\n      iszero\n      tag_48\n      jumpi\n        /* \"#utility.yul\":1098:1116   */\n      tag_49\n      tag_23\n      jump\t// in\n    tag_49:\n        /* \"#utility.yul\":1030:1118   */\n    tag_48:\n        /* \"#utility.yul\":1138:1148   */\n      dup1\n        /* \"#utility.yul\":1134:1136   */\n      0x40\n        /* \"#utility.yul\":1127:1149   */\n      mstore\n        /* \"#utility.yul\":917:1155   */\n      pop\n        /* \"#utility.yul\":874:1155   */\n      pop\n      pop\n      jump\t// out\n        /* \"#utility.yul\":1161:1290   */\n    tag_25:\n        /* \"#utility.yul\":1195:1201   */\n      0x00\n        /* \"#utility.yul\":1222:1242   */\n      tag_51\n      tag_17\n      jump\t// in\n    tag_51:\n        /* \"#utility.yul\":1212:1242   */\n      swap1\n      pop\n        /* \"#utility.yul\":1251:1284   */\n      tag_52\n        /* \"#utility.yul\":1279:1283   */\n      dup3\n        /* \"#utility.yul\":1271:1277   */\n      dup3\n        /* \"#utility.yul\":1251:1284   */\n      tag_24\n      jump\t// in\n    tag_52:\n        /* \"#utility.yul\":1161:1290   */\n      swap2\n      swap1\n      pop\n      jump\t// out\n        /* \"#utility.yul\":1296:1603   */\n    tag_26:\n        /* \"#utility.yul\":1357:1361   */\n      0x00\n        /* \"#utility.yul\":1447:1465   */\n      0xffffffffffffffff\n        /* \"#utility.yul\":1439:1445   */\n      dup3\n        /* \"#utility.yul\":1436:1466   */\n      gt\n        /* \"#utility.yul\":1433:1489   */\n      iszero\n      tag_54\n      jumpi\n        /* \"#utility.yul\":1469:1487   */\n      tag_55\n      tag_23\n      jump\t// in\n    tag_55:\n        /* \"#utility.yul\":1433:1489   */\n    tag_54:\n        /* \"#utility.yul\":1507:1536   */\n      tag_56\n        /* \"#utility.yul\":1529:1535   */\n      dup3\n        /* \"#utility.yul\":1507:1536   */\n      tag_22\n      jump\t// in\n    tag_56:\n        /* \"#utility.yul\":1499:1536   */\n      swap1\n      pop\n        /* \"#utility.yul\":1591:1595   */\n      0x20\n        /* \"#utility.yul\":1585:1589   */\n      dup2\n        /* \"#utility.yul\":1581:1596   */\n      add\n        /* \"#utility.yul\":1573:1596   */\n      swap1\n      pop\n        /* \"#utility.yul\":1296:1603   */\n      swap2\n      swap1\n      pop\n      jump\t// out\n        /* \"#utility.yul\":1609:1755   */\n    tag_27:\n        /* \"#utility.yul\":1706:1712   */\n      dup3\n        /* \"#utility.yul\":1701:1704   */\n      dup2\n        /* \"#utility.yul\":1696:1699   */\n      dup4\n        /* \"#utility.yul\":1683:1713   */\n      calldatacopy\n        /* \"#utility.yul\":1747:1748   */\n      0x00\n        /* \"#utility.yul\":1738:1744   */\n      dup4\n        /* \"#utility.yul\":1733:1736   */\n      dup4\n        /* \"#utility.yul\":1729:1745   */\n      add\n        /* \"#utility.yul\":1722:1749   */\n      mstore\n        /* \"#utility.yul\":1609:1755   */\n      pop\n      pop\n      pop\n      jump\t// out\n        /* \"#utility.yul\":1761:2184   */\n    tag_28:\n        /* \"#utility.yul\":1838:1843   */\n      0x00\n        /* \"#utility.yul\":1863:1928   */\n      tag_59\n        /* \"#utility.yul\":1879:1927   */\n      tag_60\n        /* \"#utility.yul\":1920:1926   */\n      dup5\n        /* \"#utility.yul\":1879:1927   */\n      tag_26\n      jump\t// in\n    tag_60:\n        /* \"#utility.yul\":1863:1928   */\n      tag_25\n      jump\t// in\n    tag_59:\n        /* \"#utility.yul\":1854:1928   */\n      swap1\n      pop\n        /* \"#utility.yul\":1951:1957   */\n      dup3\n        /* \"#utility.yul\":1944:1949   */\n      dup2\n        /* \"#utility.yul\":1937:1958   */\n      mstore\n        /* \"#utility.yul\":1989:1993   */\n      0x20\n        /* \"#utility.yul\":1982:1987   */\n      dup2\n        /* \"#utility.yul\":1978:1994   */\n      add\n        /* \"#utility.yul\":2027:2030   */\n      dup5\n        /* \"#utility.yul\":2018:2024   */\n      dup5\n        /* \"#utility.yul\":2013:2016   */\n      dup5\n        /* \"#utility.yul\":2009:2025   */\n      add\n        /* \"#utility.yul\":2006:2031   */\n      gt\n        /* \"#utility.yul\":2003:2115   */\n      iszero\n      tag_61\n      jumpi\n        /* \"#utility.yul\":2034:2113   */\n      tag_62\n      tag_21\n      jump\t// in\n    tag_62:\n        /* \"#utility.yul\":2003:2115   */\n    tag_61:\n        /* \"#utility.yul\":2124:2178   */\n      tag_63\n        /* \"#utility.yul\":2171:2177   */\n      dup5\n        /* \"#utility.yul\":2166:2169   */\n      dup3\n        /* \"#utility.yul\":2161:2164   */\n      dup6\n        /* \"#utility.yul\":2124:2178   */\n      tag_27\n      jump\t// in\n    tag_63:\n        /* \"#utility.yul\":1844:2184   */\n      pop\n        /* \"#utility.yul\":1761:2184   */\n      swap4\n      swap3\n      pop\n      pop\n      pop\n      jump\t// out\n        /* \"#utility.yul\":2203:2541   */\n    tag_29:\n        /* \"#utility.yul\":2258:2263   */\n      0x00\n        /* \"#utility.yul\":2307:2310   */\n      dup3\n        /* \"#utility.yul\":2300:2304   */\n      0x1f\n        /* \"#utility.yul\":2292:2298   */\n      dup4\n        /* \"#utility.yul\":2288:2305   */\n      add\n        /* \"#utility.yul\":2284:2311   */\n      slt\n        /* \"#utility.yul\":2274:2396   */\n      tag_65\n      jumpi\n        /* \"#utility.yul\":2315:2394   */\n      tag_66\n      tag_20\n      jump\t// in\n    tag_66:\n        /* \"#utility.yul\":2274:2396   */\n    tag_65:\n        /* \"#utility.yul\":2432:2438   */\n      dup2\n        /* \"#utility.yul\":2419:2439   */\n      calldataload\n        /* \"#utility.yul\":2457:2535   */\n      tag_67\n        /* \"#utility.yul\":2531:2534   */\n      dup5\n        /* \"#utility.yul\":2523:2529   */\n      dup3\n        /* \"#utility.yul\":2516:2520   */\n      0x20\n        /* \"#utility.yul\":2508:2514   */\n      dup7\n        /* \"#utility.yul\":2504:2521   */\n      add\n        /* \"#utility.yul\":2457:2535   */\n      tag_28\n      jump\t// in\n    tag_67:\n        /* \"#utility.yul\":2448:2535   */\n      swap2\n      pop\n        /* \"#utility.yul\":2264:2541   */\n      pop\n        /* \"#utility.yul\":2203:2541   */\n      swap3\n      swap2\n      pop\n      pop\n      jump\t// out\n        /* \"#utility.yul\":2547:3054   */\n    tag_6:\n        /* \"#utility.yul\":2615:2621   */\n      0x00\n        /* \"#utility.yul\":2664:2666   */\n      0x20\n        /* \"#utility.yul\":2652:2661   */\n      dup3\n        /* \"#utility.yul\":2643:2650   */\n      dup5\n        /* \"#utility.yul\":2639:2662   */\n      sub\n        /* \"#utility.yul\":2635:2667   */\n      slt\n        /* \"#utility.yul\":2632:2751   */\n      iszero\n      tag_69\n      jumpi\n        /* \"#utility.yul\":2670:2749   */\n      tag_70\n      tag_18\n      jump\t// in\n    tag_70:\n        /* \"#utility.yul\":2632:2751   */\n    tag_69:\n        /* \"#utility.yul\":2818:2819   */\n      0x00\n        /* \"#utility.yul\":2807:2816   */\n      dup3\n        /* \"#utility.yul\":2803:2820   */\n      add\n        /* \"#utility.yul\":2790:2821   */\n      calldataload\n        /* \"#utility.yul\":2848:2866   */\n      0xffffffffffffffff\n        /* \"#utility.yul\":2840:2846   */\n      dup2\n        /* \"#utility.yul\":2837:2867   */\n      gt\n        /* \"#utility.yul\":2834:2951   */\n      iszero\n      tag_71\n      jumpi\n        /* \"#utility.yul\":2870:2949   */\n      tag_72\n      tag_19\n      jump\t// in\n    tag_72:\n        /* \"#utility.yul\":2834:2951   */\n    tag_71:\n        /* \"#utility.yul\":2975:3037   */\n      tag_73\n        /* \"#utility.yul\":3029:3036   */\n      dup5\n        /* \"#utility.yul\":3020:3026   */\n      dup3\n        /* \"#utility.yul\":3009:3018   */\n      dup6\n        /* \"#utility.yul\":3005:3027   */\n      add\n        /* \"#utility.yul\":2975:3037   */\n      tag_29\n      jump\t// in\n    tag_73:\n        /* \"#utility.yul\":2965:3037   */\n      swap2\n      pop\n        /* \"#utility.yul\":2761:3047   */\n      pop\n        /* \"#utility.yul\":2547:3054   */\n      swap3\n      swap2\n      pop\n      pop\n      jump\t// out\n        /* \"#utility.yul\":3060:3137   */\n    tag_30:\n        /* \"#utility.yul\":3097:3104   */\n      0x00\n        /* \"#utility.yul\":3126:3131   */\n      dup2\n        /* \"#utility.yul\":3115:3131   */\n      swap1\n      pop\n        /* \"#utility.yul\":3060:3137   */\n      swap2\n      swap1\n      pop\n      jump\t// out\n        /* \"#utility.yul\":3143:3261   */\n    tag_31:\n        /* \"#utility.yul\":3230:3254   */\n      tag_76\n        /* \"#utility.yul\":3248:3253   */\n      dup2\n        /* \"#utility.yul\":3230:3254   */\n      tag_30\n      jump\t// in\n    tag_76:\n        /* \"#utility.yul\":3225:3228   */\n      dup3\n        /* \"#utility.yul\":3218:3255   */\n      mstore\n        /* \"#utility.yul\":3143:3261   */\n      pop\n      pop\n      jump\t// out\n        /* \"#utility.yul\":3267:3489   */\n    tag_9:\n        /* \"#utility.yul\":3360:3364   */\n      0x00\n        /* \"#utility.yul\":3398:3400   */\n      0x20\n        /* \"#utility.yul\":3387:3396   */\n      dup3\n        /* \"#utility.yul\":3383:3401   */\n      add\n        /* \"#utility.yul\":3375:3401   */\n      swap1\n      pop\n        /* \"#utility.yul\":3411:3482   */\n      tag_78\n        /* \"#utility.yul\":3479:3480   */\n      0x00\n        /* \"#utility.yul\":3468:3477   */\n      dup4\n        /* \"#utility.yul\":3464:3481   */\n      add\n        /* \"#utility.yul\":3455:3461   */\n      dup5\n        /* \"#utility.yul\":3411:3482   */\n      tag_31\n      jump\t// in\n    tag_78:\n        /* \"#utility.yul\":3267:3489   */\n      swap3\n      swap2\n      pop\n      pop\n      jump\t// out\n        /* \"#utility.yul\":3495:3593   */\n    tag_32:\n        /* \"#utility.yul\":3546:3552   */\n      0x00\n        /* \"#utility.yul\":3580:3585   */\n      dup2\n        /* \"#utility.yul\":3574:3586   */\n      mload\n        /* \"#utility.yul\":3564:3586   */\n      swap1\n      pop\n        /* \"#utility.yul\":3495:3593   */\n      swap2\n      swap1\n      pop\n      jump\t// out\n        /* \"#utility.yul\":3599:3746   */\n    tag_33:\n        /* \"#utility.yul\":3700:3711   */\n      0x00\n        /* \"#utility.yul\":3737:3740   */\n      dup2\n        /* \"#utility.yul\":3722:3740   */\n      swap1\n      pop\n        /* \"#utility.yul\":3599:3746   */\n      swap3\n      swap2\n      pop\n      pop\n      jump\t// out\n        /* \"#utility.yul\":3752:3998   */\n    tag_34:\n        /* \"#utility.yul\":3833:3834   */\n      0x00\n        /* \"#utility.yul\":3843:3956   */\n    tag_82:\n        /* \"#utility.yul\":3857:3863   */\n      dup4\n        /* \"#utility.yul\":3854:3855   */\n      dup2\n        /* \"#utility.yul\":3851:3864   */\n      lt\n        /* \"#utility.yul\":3843:3956   */\n      iszero\n      tag_84\n      jumpi\n        /* \"#utility.yul\":3942:3943   */\n      dup1\n        /* \"#utility.yul\":3937:3940   */\n      dup3\n        /* \"#utility.yul\":3933:3944   */\n      add\n        /* \"#utility.yul\":3927:3945   */\n      mload\n        /* \"#utility.yul\":3923:3924   */\n      dup2\n        /* \"#utility.yul\":3918:3921   */\n      dup5\n        /* \"#utility.yul\":3914:3925   */\n      add\n        /* \"#utility.yul\":3907:3946   */\n      mstore\n        /* \"#utility.yul\":3879:3881   */\n      0x20\n        /* \"#utility.yul\":3876:3877   */\n      dup2\n        /* \"#utility.yul\":3872:3882   */\n      add\n        /* \"#utility.yul\":3867:3882   */\n      swap1\n      pop\n        /* \"#utility.yul\":3843:3956   */\n      jump(tag_82)\n    tag_84:\n        /* \"#utility.yul\":3990:3991   */\n      0x00\n        /* \"#utility.yul\":3981:3987   */\n      dup5\n        /* \"#utility.yul\":3976:3979   */\n      dup5\n        /* \"#utility.yul\":3972:3988   */\n      add\n        /* \"#utility.yul\":3965:3992   */\n      mstore\n        /* \"#utility.yul\":3814:3998   */\n      pop\n        /* \"#utility.yul\":3752:3998   */\n      pop\n      pop\n      pop\n      jump\t// out\n        /* \"#utility.yul\":4004:4390   */\n    tag_35:\n        /* \"#utility.yul\":4108:4111   */\n      0x00\n        /* \"#utility.yul\":4136:4174   */\n      tag_86\n        /* \"#utility.yul\":4168:4173   */\n      dup3\n        /* \"#utility.yul\":4136:4174   */\n      tag_32\n      jump\t// in\n    tag_86:\n        /* \"#utility.yul\":4190:4278   */\n      tag_87\n        /* \"#utility.yul\":4271:4277   */\n      dup2\n        /* \"#utility.yul\":4266:4269   */\n      dup6\n        /* \"#utility.yul\":4190:4278   */\n      tag_33\n      jump\t// in\n    tag_87:\n        /* \"#utility.yul\":4183:4278   */\n      swap4\n      pop\n        /* \"#utility.yul\":4287:4352   */\n      tag_88\n        /* \"#utility.yul\":4345:4351   */\n      dup2\n        /* \"#utility.yul\":4340:4343   */\n      dup6\n        /* \"#utility.yul\":4333:4337   */\n      0x20\n        /* \"#utility.yul\":4326:4331   */\n      dup7\n        /* \"#utility.yul\":4322:4338   */\n      add\n        /* \"#utility.yul\":4287:4352   */\n      tag_34\n      jump\t// in\n    tag_88:\n        /* \"#utility.yul\":4377:4383   */\n      dup1\n        /* \"#utility.yul\":4372:4375   */\n      dup5\n        /* \"#utility.yul\":4368:4384   */\n      add\n        /* \"#utility.yul\":4361:4384   */\n      swap2\n      pop\n        /* \"#utility.yul\":4112:4390   */\n      pop\n        /* \"#utility.yul\":4004:4390   */\n      swap3\n      swap2\n      pop\n      pop\n      jump\t// out\n        /* \"#utility.yul\":4396:4667   */\n    tag_12:\n        /* \"#utility.yul\":4526:4529   */\n      0x00\n        /* \"#utility.yul\":4548:4641   */\n      tag_90\n        /* \"#utility.yul\":4637:4640   */\n      dup3\n        /* \"#utility.yul\":4628:4634   */\n      dup5\n        /* \"#utility.yul\":4548:4641   */\n      tag_35\n      jump\t// in\n    tag_90:\n        /* \"#utility.yul\":4541:4641   */\n      swap2\n      pop\n        /* \"#utility.yul\":4658:4661   */\n      dup2\n        /* \"#utility.yul\":4651:4661   */\n      swap1\n      pop\n        /* \"#utility.yul\":4396:4667   */\n      swap3\n      swap2\n      pop\n      pop\n      jump\t// out\n        /* \"#utility.yul\":4673:4795   */\n    tag_36:\n        /* \"#utility.yul\":4746:4770   */\n      tag_92\n        /* \"#utility.yul\":4764:4769   */\n      dup2\n        /* \"#utility.yul\":4746:4770   */\n      tag_30\n      jump\t// in\n    tag_92:\n        /* \"#utility.yul\":4739:4744   */\n      dup2\n        /* \"#utility.yul\":4736:4771   */\n      eq\n        /* \"#utility.yul\":4726:4789   */\n      tag_93\n      jumpi\n        /* \"#utility.yul\":4785:4786   */\n      0x00\n        /* \"#utility.yul\":4782:4783   */\n      dup1\n        /* \"#utility.yul\":4775:4787   */\n      revert\n        /* \"#utility.yul\":4726:4789   */\n    tag_93:\n        /* \"#utility.yul\":4673:4795   */\n      pop\n      jump\t// out\n        /* \"#utility.yul\":4801:4944   */\n    tag_37:\n        /* \"#utility.yul\":4858:4863   */\n      0x00\n        /* \"#utility.yul\":4889:4895   */\n      dup2\n        /* \"#utility.yul\":4883:4896   */\n      mload\n        /* \"#utility.yul\":4874:4896   */\n      swap1\n      pop\n        /* \"#utility.yul\":4905:4938   */\n      tag_95\n        /* \"#utility.yul\":4932:4937   */\n      dup2\n        /* \"#utility.yul\":4905:4938   */\n      tag_36\n      jump\t// in\n    tag_95:\n        /* \"#utility.yul\":4801:4944   */\n      swap3\n      swap2\n      pop\n      pop\n      jump\t// out\n        /* \"#utility.yul\":4950:5301   */\n    tag_16:\n        /* \"#utility.yul\":5020:5026   */\n      0x00\n        /* \"#utility.yul\":5069:5071   */\n      0x20\n        /* \"#utility.yul\":5057:5066   */\n      dup3\n        /* \"#utility.yul\":5048:5055   */\n      dup5\n        /* \"#utility.yul\":5044:5067   */\n      sub\n        /* \"#utility.yul\":5040:5072   */\n      slt\n        /* \"#utility.yul\":5037:5156   */\n      iszero\n      tag_97\n      jumpi\n        /* \"#utility.yul\":5075:5154   */\n      tag_98\n      tag_18\n      jump\t// in\n    tag_98:\n        /* \"#utility.yul\":5037:5156   */\n    tag_97:\n        /* \"#utility.yul\":5195:5196   */\n      0x00\n        /* \"#utility.yul\":5220:5284   */\n      tag_99\n        /* \"#utility.yul\":5276:5283   */\n      dup5\n        /* \"#utility.yul\":5267:5273   */\n      dup3\n        /* \"#utility.yul\":5256:5265   */\n      dup6\n        /* \"#utility.yul\":5252:5274   */\n      add\n        /* \"#utility.yul\":5220:5284   */\n      tag_37\n      jump\t// in\n    tag_99:\n        /* \"#utility.yul\":5210:5284   */\n      swap2\n      pop\n        /* \"#utility.yul\":5166:5294   */\n      pop\n        /* \"#utility.yul\":4950:5301   */\n      swap3\n      swap2\n      pop\n      pop\n      jump\t// out\n\n    auxdata: 0xa2646970667358221220234e83e64badd35df81884a03c1392457e9af78ea6aa995735b596f68931a03c64736f6c63430008170033\n}\n",
				"bytecode": {
					"linkReferences": {},
					"object": "608060405234801561000f575f80fd5b506103858061001d5f395ff3fe608060405234801561000f575f80fd5b5060043610610029575f3560e01c8063b00140aa1461002d575b5f80fd5b61004760048036038101906100429190610200565b61005d565b604051610054919061025f565b60405180910390f35b5f60028260405161006e91906102e4565b602060405180830381855afa158015610089573d5f803e3d5ffd5b5050506040513d601f19601f820116820180604052508101906100ac9190610324565b9050919050565b5f604051905090565b5f80fd5b5f80fd5b5f80fd5b5f80fd5b5f601f19601f8301169050919050565b7f4e487b71000000000000000000000000000000000000000000000000000000005f52604160045260245ffd5b610112826100cc565b810181811067ffffffffffffffff82111715610131576101306100dc565b5b80604052505050565b5f6101436100b3565b905061014f8282610109565b919050565b5f67ffffffffffffffff82111561016e5761016d6100dc565b5b610177826100cc565b9050602081019050919050565b828183375f83830152505050565b5f6101a461019f84610154565b61013a565b9050828152602081018484840111156101c0576101bf6100c8565b5b6101cb848285610184565b509392505050565b5f82601f8301126101e7576101e66100c4565b5b81356101f7848260208601610192565b91505092915050565b5f60208284031215610215576102146100bc565b5b5f82013567ffffffffffffffff811115610232576102316100c0565b5b61023e848285016101d3565b91505092915050565b5f819050919050565b61025981610247565b82525050565b5f6020820190506102725f830184610250565b92915050565b5f81519050919050565b5f81905092915050565b5f5b838110156102a957808201518184015260208101905061028e565b5f8484015250505050565b5f6102be82610278565b6102c88185610282565b93506102d881856020860161028c565b80840191505092915050565b5f6102ef82846102b4565b915081905092915050565b61030381610247565b811461030d575f80fd5b50565b5f8151905061031e816102fa565b92915050565b5f60208284031215610339576103386100bc565b5b5f61034684828501610310565b9150509291505056fea2646970667358221220234e83e64badd35df81884a03c1392457e9af78ea6aa995735b596f68931a03c64736f6c63430008170033",
					"opcodes": "PUSH1 0x80 PUSH1 0x40 MSTORE CALLVALUE DUP1 ISZERO PUSH2 0xF JUMPI PUSH0 DUP1 REVERT JUMPDEST POP PUSH2 0x385 DUP1 PUSH2 0x1D PUSH0 CODECOPY PUSH0 RETURN INVALID PUSH1 0x80 PUSH1 0x40 MSTORE CALLVALUE DUP1 ISZERO PUSH2 0xF JUMPI PUSH0 DUP1 REVERT JUMPDEST POP PUSH1 0x4 CALLDATASIZE LT PUSH2 0x29 JUMPI PUSH0 CALLDATALOAD PUSH1 0xE0 SHR DUP1 PUSH4 0xB00140AA EQ PUSH2 0x2D JUMPI JUMPDEST PUSH0 DUP1 REVERT JUMPDEST PUSH2 0x47 PUSH1 0x4 DUP1 CALLDATASIZE SUB DUP2 ADD SWAP1 PUSH2 0x42 SWAP2 SWAP1 PUSH2 0x200 JUMP JUMPDEST PUSH2 0x5D JUMP JUMPDEST PUSH1 0x40 MLOAD PUSH2 0x54 SWAP2 SWAP1 PUSH2 0x25F JUMP JUMPDEST PUSH1 0x40 MLOAD DUP1 SWAP2 SUB SWAP1 RETURN JUMPDEST PUSH0 PUSH1 0x2 DUP3 PUSH1 0x40 MLOAD PUSH2 0x6E SWAP2 SWAP1 PUSH2 0x2E4 JUMP JUMPDEST PUSH1 0x20 PUSH1 0x40 MLOAD DUP1 DUP4 SUB DUP2 DUP6 GAS STATICCALL ISZERO DUP1 ISZERO PUSH2 0x89 JUMPI RETURNDATASIZE PUSH0 DUP1 RETURNDATACOPY RETURNDATASIZE PUSH0 REVERT JUMPDEST POP POP POP PUSH1 0x40 MLOAD RETURNDATASIZE PUSH1 0x1F NOT PUSH1 0x1F DUP3 ADD AND DUP3 ADD DUP1 PUSH1 0x40 MSTORE POP DUP2 ADD SWAP1 PUSH2 0xAC SWAP2 SWAP1 PUSH2 0x324 JUMP JUMPDEST SWAP1 POP SWAP2 SWAP1 POP JUMP JUMPDEST PUSH0 PUSH1 0x40 MLOAD SWAP1 POP SWAP1 JUMP JUMPDEST PUSH0 DUP1 REVERT JUMPDEST PUSH0 DUP1 REVERT JUMPDEST PUSH0 DUP1 REVERT JUMPDEST PUSH0 DUP1 REVERT JUMPDEST PUSH0 PUSH1 0x1F NOT PUSH1 0x1F DUP4 ADD AND SWAP1 POP SWAP2 SWAP1 POP JUMP JUMPDEST PUSH32 0x4E487B7100000000000000000000000000000000000000000000000000000000 PUSH0 MSTORE PUSH1 0x41 PUSH1 0x4 MSTORE PUSH1 0x24 PUSH0 REVERT JUMPDEST PUSH2 0x112 DUP3 PUSH2 0xCC JUMP JUMPDEST DUP2 ADD DUP2 DUP2 LT PUSH8 0xFFFFFFFFFFFFFFFF DUP3 GT OR ISZERO PUSH2 0x131 JUMPI PUSH2 0x130 PUSH2 0xDC JUMP JUMPDEST JUMPDEST DUP1 PUSH1 0x40 MSTORE POP POP POP JUMP JUMPDEST PUSH0 PUSH2 0x143 PUSH2 0xB3 JUMP JUMPDEST SWAP1 POP PUSH2 0x14F DUP3 DUP3 PUSH2 0x109 JUMP JUMPDEST SWAP2 SWAP1 POP JUMP JUMPDEST PUSH0 PUSH8 0xFFFFFFFFFFFFFFFF DUP3 GT ISZERO PUSH2 0x16E JUMPI PUSH2 0x16D PUSH2 0xDC JUMP JUMPDEST JUMPDEST PUSH2 0x177 DUP3 PUSH2 0xCC JUMP JUMPDEST SWAP1 POP PUSH1 0x20 DUP2 ADD SWAP1 POP SWAP2 SWAP1 POP JUMP JUMPDEST DUP3 DUP2 DUP4 CALLDATACOPY PUSH0 DUP4 DUP4 ADD MSTORE POP POP POP JUMP JUMPDEST PUSH0 PUSH2 0x1A4 PUSH2 0x19F DUP5 PUSH2 0x154 JUMP JUMPDEST PUSH2 0x13A JUMP JUMPDEST SWAP1 POP DUP3 DUP2 MSTORE PUSH1 0x20 DUP2 ADD DUP5 DUP5 DUP5 ADD GT ISZERO PUSH2 0x1C0 JUMPI PUSH2 0x1BF PUSH2 0xC8 JUMP JUMPDEST JUMPDEST PUSH2 0x1CB DUP5 DUP3 DUP6 PUSH2 0x184 JUMP JUMPDEST POP SWAP4 SWAP3 POP POP POP JUMP JUMPDEST PUSH0 DUP3 PUSH1 0x1F DUP4 ADD SLT PUSH2 0x1E7 JUMPI PUSH2 0x1E6 PUSH2 0xC4 JUMP JUMPDEST JUMPDEST DUP2 CALLDATALOAD PUSH2 0x1F7 DUP5 DUP3 PUSH1 0x20 DUP7 ADD PUSH2 0x192 JUMP JUMPDEST SWAP2 POP POP SWAP3 SWAP2 POP POP JUMP JUMPDEST PUSH0 PUSH1 0x20 DUP3 DUP5 SUB SLT ISZERO PUSH2 0x215 JUMPI PUSH2 0x214 PUSH2 0xBC JUMP JUMPDEST JUMPDEST PUSH0 DUP3 ADD CALLDATALOAD PUSH8 0xFFFFFFFFFFFFFFFF DUP2 GT ISZERO PUSH2 0x232 JUMPI PUSH2 0x231 PUSH2 0xC0 JUMP JUMPDEST JUMPDEST PUSH2 0x23E DUP5 DUP3 DUP6 ADD PUSH2 0x1D3 JUMP JUMPDEST SWAP2 POP POP SWAP3 SWAP2 POP POP JUMP JUMPDEST PUSH0 DUP2 SWAP1 POP SWAP2 SWAP1 POP JUMP JUMPDEST PUSH2 0x259 DUP2 PUSH2 0x247 JUMP JUMPDEST DUP3 MSTORE POP POP JUMP JUMPDEST PUSH0 PUSH1 0x20 DUP3 ADD SWAP1 POP PUSH2 0x272 PUSH0 DUP4 ADD DUP5 PUSH2 0x250 JUMP JUMPDEST SWAP3 SWAP2 POP POP JUMP JUMPDEST PUSH0 DUP2 MLOAD SWAP1 POP SWAP2 SWAP1 POP JUMP JUMPDEST PUSH0 DUP2 SWAP1 POP SWAP3 SWAP2 POP POP JUMP JUMPDEST PUSH0 JUMPDEST DUP4 DUP2 LT ISZERO PUSH2 0x2A9 JUMPI DUP1 DUP3 ADD MLOAD DUP2 DUP5 ADD MSTORE PUSH1 0x20 DUP2 ADD SWAP1 POP PUSH2 0x28E JUMP JUMPDEST PUSH0 DUP5 DUP5 ADD MSTORE POP POP POP POP JUMP JUMPDEST PUSH0 PUSH2 0x2BE DUP3 PUSH2 0x278 JUMP JUMPDEST PUSH2 0x2C8 DUP2 DUP6 PUSH2 0x282 JUMP JUMPDEST SWAP4 POP PUSH2 0x2D8 DUP2 DUP6 PUSH1 0x20 DUP7 ADD PUSH2 0x28C JUMP JUMPDEST DUP1 DUP5 ADD SWAP2 POP POP SWAP3 SWAP2 POP POP JUMP JUMPDEST PUSH0 PUSH2 0x2EF DUP3 DUP5 PUSH2 0x2B4 JUMP JUMPDEST SWAP2 POP DUP2 SWAP1 POP SWAP3 SWAP2 POP POP JUMP JUMPDEST PUSH2 0x303 DUP2 PUSH2 0x247 JUMP JUMPDEST DUP2 EQ PUSH2 0x30D JUMPI PUSH0 DUP1 REVERT JUMPDEST POP JUMP JUMPDEST PUSH0 DUP2 MLOAD SWAP1 POP PUSH2 0x31E DUP2 PUSH2 0x2FA JUMP JUMPDEST SWAP3 SWAP2 POP POP JUMP JUMPDEST PUSH0 PUSH1 0x20 DUP3 DUP5 SUB SLT ISZERO PUSH2 0x339 JUMPI PUSH2 0x338 PUSH2 0xBC JUMP JUMPDEST JUMPDEST PUSH0 PUSH2 0x346 DUP5 DUP3 DUP6 ADD PUSH2 0x310 JUMP JUMPDEST SWAP2 POP POP SWAP3 SWAP2 POP POP JUMP INVALID LOG2 PUSH5 0x6970667358 0x22 SLT KECCAK256 0x23 0x4E DUP4 0xE6 0x4B 0xAD 0xD3 0x5D 0xF8 XOR DUP5 LOG0 EXTCODECOPY SGT SWAP3 GASLIMIT PUSH31 0x9AF78EA6AA995735B596F68931A03C64736F6C634300081700330000000000 "
				},
				"gasEstimates": {
					"creation": {
						"codeDepositCost": "180200",
						"executionCost": "224",
						"totalCost": "180424"
					},
					"external": {
						"getHash(bytes)": "infinite"
					}
				},
				"methodIdentifiers": {
					"getHash(bytes)": "b00140aa"
				}
			},
			"storageLayout": {
				"storage": [],
				"types": null
			},
			"userdoc": {
				"kind": "user",
				"methods": {},
				"version": 1
			}
		}
	}
}